S01000007465746F726973332E73726563D7
S11300000C9450000C945A000C945A000C945A000E
S11300100C945A000C945A000C945A000C945A00F4
S11300200C945A000C945A000C945A000C945A00E4
S11300300C945A000C945A000C945A000C945A00D4
S11300400C945A000C945A000C945A000C945A00C4
S11300500C945A000C945A000C945A000C945A00B4
S11300600C945A000C945A000C945A000C945A00A4
S11300700C945A000C945A000C945A000C945A0094
S11300800C945A000C945A000C945A000C945A0084
S11300900C945A000C945A000C945A000C945A0074
S11300A011241FBECFEFCDBFDFE3DEBF0E949F0050
S11300B00C94AD000C940000CF93DF93CDEC8C9F97
S11300C0C12D1124C695C695C6952C2F220F922FAB
S11300D0990F990F920F891B29EC30E0E0E8F4E0C6
S11300E0D0E0C25ADE4BA0E4B4E04881C82FD0E08F
S11300F0C25ADE4B98818481846084838481877FA3
S1130100848314964C931497C1EED4E02197F1F7AD
S113011000C0000084818860848384818B7F848311
S113012014969C931497C1EED4E02197F1F700C084
S1130130000021503109F9F6DF91CF9108958FEF36
S1130140809340048CE080938104C0E08C2F0E9453
S11101505C00CF5FC436D1F7F8CFF894FFCF30
S10D015EB711AB9B1D9EBE13BF9F9B
S9030000FC
