:100000000C9450000C945A000C945A000C945A0012
:100010000C945A000C945A000C945A000C945A00F8
:100020000C945A000C945A000C945A000C945A00E8
:100030000C945A000C945A000C945A000C945A00D8
:100040000C945A000C945A000C945A000C945A00C8
:100050000C945A000C945A000C945A000C945A00B8
:100060000C945A000C945A000C945A000C945A00A8
:100070000C945A000C945A000C945A000C945A0098
:100080000C945A000C945A000C945A000C945A0088
:100090000C945A000C945A000C945A000C945A0078
:1000A00011241FBECFEFCDBFDFE3DEBF0E941901D9
:1000B0000C9438010C940000CF93DF93CDEC8C9F0F
:1000C000C12D1124C695C695C6952C2F220F922FAF
:1000D000990F990F920F891B25E630E0E0E8F4E0D4
:1000E000D0E0CC58DD4BA0E4B4E04881C82FD0E08C
:1000F000CC58DD4B98818481846084838481877FA0
:10010000848314964C931497C1EED4E02197F1F7B1
:1001100000C0000084818860848384818B7F848315
:1001200014969C931497C1EED4E02197F1F700C088
:10013000000021503109F9F6DF91CF910895E0EAEE
:10014000F8E08BE0868381E0858383830895880FC0
:10015000862B8093A708E0EAF8E08581807CE9F3AC
:10016000611106C0E0EAF8E085818064858305C0FE
:10017000E0EAF8E0858180688583E0EAF8E085813F
:1001800084FDFDCF08958093A808E0EAF8E085811A
:1001900086FFFDCFE0EAF8E085818064858382E018
:1001A000848385818295817091E089270895E0EAB2
:1001B000F8E0958195FFFDCF882321F087E08093BB
:1001C000A40803C082E08093A4088091A808089541
:1001D000CF93DF93C82FD62F60E00E94A7008D2F0A
:1001E0000E94C300811106C087E08093A4088FEFAE
:1001F0009FEF15C061E08C2F0E94A70080E00E9455
:10020000D700C82F81E00E94D70097E09093A40800
:100210002C2F30E0322F2227A901482BCA01DF9171
:10022000CF910895292F882314F421E0290F822FDC
:1002300008958FEF809340048CE080938104E0E088
:10024000F4E08083818388E0828B838B88E10E9445
:100250005C000E949F0061E088E40E94E8008F3FFC
:100260002FEF9207C1F30E9412010E945C00F3CFAE
:04027000F894FFCF30
:0A027400B711AB9B1D9EBE13BF9F88
:00000001FF
