:100000000C9450000C9462000C9462000C946200FA
:100010000C9462000C9462000C9464000C946200D6
:100020000C9462000C9462000C9462000C946200C8
:100030000C9462000C9462000C9462000C946200B8
:100040000C9462000C9462000C9462000C946200A8
:100050000C9462000C9462000C9462000C94620098
:100060000C9462000C9462000C9462000C94620088
:100070000C9462000C9462000C9462000C94620078
:100080000C9462000C9462000C9462000C94620068
:100090000C9462000C9462000C9462000C94620058
:1000A00011241FBECFEFCDBFDFE3DEBF28E2A0E00B
:1000B000B8E201C01D92A430B207E1F70E94A4008B
:1000C0000C943B010C9400001F920F920FB60F92FC
:1000D00011248F93EF93FF9380910904882344F4B4
:1000E00081E080930228E0E0F4E0818580688187E8
:1000F0008091090486FF08C081E080930328E0E036
:10010000F4E08185806481878091090485FF08C0BF
:1001100081E080930028E0E0F4E0818580628187BF
:100120008091090484FF08C081E080930128E0E009
:10013000F4E0818580618187FF91EF918F910F902D
:100140000FBE0F901F901895E0E6F4E08081806864
:1001500080838081806480838081806280838081CD
:100160008061808310920228109203281092002848
:1001700010920128E0E0F4E080818F778083808115
:100180008F7B808380818F7D808380818F7E808341
:1001900087898960878B86898960868B8589896054
:1001A000858B84898960848B7894A0E0B4E0E0E654
:1001B000F4E080910228882399F018968C91189782
:1001C000882364F084818068848384818F7B848326
:1001D00084818F7D848384818F7E84831092022822
:1001E00080910328882399F018968C91189786FDA2
:1001F0000CC084818064848384818F77848384812C
:100200008F7D848384818F7E8483109203288091E4
:100210000028882399F018968C91189785FD0CC0BA
:1002200084818062848384818F7B848384818F77BF
:10023000848384818F7E848310920028809101289A
:10024000882399F018968C91189784FD0CC08481AE
:100250008061848384818F7B848384818F7D848388
:1002600084818F778483109201288DE890E2019732
:0A027000F1F700009ECFF894FFCFD5
:00000001FF
