S01000005465746F726973342E73726563F6
S11300000C9450000C945A000C945A000C945A000E
S11300100C945A000C945A000C945A000C945A00F4
S11300200C945A000C945A000C945A000C945A00E4
S11300300C945A000C945A000C945A000C945A00D4
S11300400C945A000C945A000C945A000C945A00C4
S11300500C945A000C945A000C945A000C945A00B4
S11300600C945A000C945A000C945A000C945A00A4
S11300700C945A000C945A000C945A000C945A0094
S11300800C945A000C945A000C945A000C945A0084
S11300900C945A000C945A000C945A000C945A0074
S11300A011241FBECFEFCDBFDFE3DEBF0E945C0093
S11300B00C9473000C940000E0EAF4E08081806208
S11300C08083E0E0FAE083818160838381818064BE
S11300D0818383E387A315A685E08093E40580816B
S10D00E08B608083FFCFF894FFCFFC
S9030000FC
